:100000000C9458000C9480000C9480000C94800098
:100010000C9480000C9480000C9480000C94800060
:100020000C9480000C9480000C9480000C94800050
:100030000C9480000C9480000C9480000C94800040
:100040000C9469030C9480000C94D9030C94B303B2
:100050000C9480000C9480000C9480000C94800020
:100060000C940B040C948000000000002500280074
:100070002B00040404040404040402020202020229
:10008000030303030303010204081020408001025C
:1000900004081020010204081020000000080002DB
:1000A0000100000304070000000000000000390503
:1000B00011241FBECFEFD8E0DEBFCDBF11E0A0E01E
:1000C000B1E0E2EAFEE002C005900D92A834B1076B
:1000D000D9F722E0A8E4B1E001C01D92A13BB2072C
:1000E000E1F710E0C8E5D0E004C02197FE010E94CE
:1000F0004407C735D107C9F70E9475050C944F070F
:100100000C94000090E0FC01E656FF4F2491FC01A6
:10011000EA57FF4F3491FC01EE58FF4FE491EE2374
:10012000B1F1222339F1233091F038F42130A9F0D4
:10013000223001F584B58F7D12C0273091F0283030
:10014000A1F02430B9F4809180008F7D03C08091AC
:1001500080008F77809380000DC084B58F7784BD39
:1001600009C08091B0008F7703C08091B0008F7D6F
:100170008093B000F0E0EE0FFF1FE859FF4FA5910C
:10018000B4918FB7F894EC913E2B3C938FBF0895B8
:100190003FB7F8948091B8019091B901A091BA014C
:1001A000B091BB0126B5A89B05C02F3F19F0019661
:1001B000A11DB11D3FBFBA2FA92F982F8827820FED
:1001C000911DA11DB11DBC01CD0142E0660F771F3D
:1001D000881F991F4A95D1F708958F929F92AF92E9
:1001E000BF92CF92DF92EF92FF926B017C010E944F
:1001F000C8004B015C01C114D104E104F104F1F029
:100200000E94C800DC01CB0188199909AA09BB0921
:10021000883E9340A105B10570F321E0C21AD108D0
:10022000E108F10888EE880E83E0981EA11CB11C3D
:10023000C114D104E104F10419F7DDCFFF90EF9070
:10024000DF90CF90BF90AF909F908F900895CF9206
:10025000DF92EF92FF920F931F93CF93DF936C0186
:100260007A018B01C0E0D0E0CE15DF0589F0D8011E
:100270006D918D01D601ED91FC910190F081E02D01
:10028000C6010995892B11F47E0102C02196ECCF9D
:10029000C701DF91CF911F910F91FF90EF90DF90F9
:1002A000CF900895FC01538D448D252F30E0842F8D
:1002B00090E0821B930B541710F0CF96089501978E
:1002C0000895FC01918D828D981761F0828DDF0178
:1002D000A80FB11D5D968C91928D9F5F9F73928F39
:1002E00090E008958FEF9FEF0895FC01918D828D2E
:1002F000981731F0828DE80FF11D858D90E00895FB
:100300008FEF9FEF0895FC01918D228D892F90E052
:10031000805C9F4F821B91098F739927089585E018
:1003200092E00E94830121E0892B09F420E0822FD2
:100330000895FC01848DDF01A80FB11DA35ABF4FA2
:100340002C91848D90E001968F739927848FA689D4
:10035000B7892C93A089B1898C9180648C93938DFB
:10036000848D981306C00288F389E02D80818F7DEB
:1003700080830895EF92FF920F931F93CF93DF93A3
:10038000EC0181E0888F9B8D8C8D981305C0E889E6
:10039000F989808185FD24C0F62E0B8D10E00F5F5A
:1003A0001F4F0F731127E02E8C8DE8120CC00FB673
:1003B00007FCFACFE889F989808185FFF5CFCE0166
:1003C0000E949901F1CF8B8DFE01E80FF11DE35AD8
:1003D000FF4FF0820B8FEA89FB898081806207C022
:1003E000EE89FF896083E889F98980818064808350
:1003F00081E090E0DF91CF911F910F91FF90EF90FE
:100400000895CF93DF93EC01888D8823C9F0EA89A2
:10041000FB89808185FD05C0A889B9898C9186FDFD
:100420000FC00FB607FCF5CF808185FFF2CFA889FA
:10043000B9898C9185FFEDCFCE010E949901E7CF5C
:10044000DF91CF91089580E090E0892B29F00E9400
:100450008F0181110C940000089585ED8093BC00FC
:100460008091BC0084FDFCCF1092E2010895409180
:100470006A01262F30E0240F311D21323105DCF4D2
:100480002091E2012430C9F4FC0180E090E086175D
:1004900058F430916A012191DC01A85BBE4FA30F93
:1004A000B11D2C930196F3CF80916A01680F609380
:1004B0006A0180E0089581E0089582E00895109235
:1004C000E20181E08093E1011092DC0182E10E946F
:1004D000820083E10E948200E9EBF0E080818E7F60
:1004E000808380818D7F808388E48093B80085E459
:1004F0008093BC0008950895E091E4018091E301A8
:10050000E81730F4F0E0EB51FE4F808190E0089561
:100510008FEF9FEF08959091E4018091E301981788
:1005200050F4E92FF0E0EB51FE4F208130E09F5F67
:100530009093E40102C02FEF3FEFC901089580912D
:10054000E30190E02091E401821B91090895CF928C
:10055000DF92EF92FF920F931F93CF93DF937C0173
:10056000262F972F8A018091B001882391F0C62F02
:10057000D72F6E01C40ED51ECC15DD0571F0699123
:10058000D701ED91FC910190F081E02DC701099513
:10059000F3CF642F822F0E943702C801DF91CF91E1
:1005A0001F910F91FF90EF90DF90CF900895CF9320
:1005B000DF931F92CDB7DEB769832091B00122236C
:1005C000D1F02091B101203240F021E030E0FC0177
:1005D0003383228380E090E015C08091B201E82F40
:1005E000F0E0E157FE4F998190838F5F8093B201D5
:1005F0008093B10105C061E0CE0101960E943702EF
:1006000081E090E00F90DF91CF910895089580E010
:1006100090E008958091E2018111FCCF842F413256
:1006200008F080E291E09093E2019093E1012FEFD6
:100630002093E0011092DF01280F2093DE019093B8
:10064000DD019091DD01660F692B6093DD019091D2
:10065000DC01913061F41092DC019091DD01909306
:10066000BB009091BC0093FDF8CF95EC01C095EED6
:100670009093BC009091E2019130E1F39091DF0101
:10068000981710F48091DF01ACEBB1E025EE31E07A
:10069000F9019E2F921B981718F49D919193F9CF11
:1006A0001092E4018093E3010895009769F0FC0142
:1006B00001900020E9F73197AF01481B590BBC01AD
:1006C00085E092E00C94270180E090E008950E947C
:1006D0004A071F920F920FB60F9211242F933F9348
:1006E0008F939F93AF93BF938091B4019091B50185
:1006F000A091B601B091B7013091B30123E0230F6F
:100700002D3720F40196A11DB11D05C026E8230F49
:100710000296A11DB11D2093B3018093B401909363
:10072000B501A093B601B093B7018091B801909143
:10073000B901A091BA01B091BB010196A11DB11DF3
:100740008093B8019093B901A093BA01B093BB0113
:10075000BF91AF919F918F913F912F910F900FBEBD
:100760000F901F9018951F920F920FB60F921124A1
:100770002F933F934F935F936F937F938F939F93A9
:10078000AF93BF93EF93FF9385E092E00E949901AE
:10079000FF91EF91BF91AF919F918F917F916F9159
:1007A0005F914F913F912F910F900FBE0F901F902F
:1007B00018951F920F920FB60F9211242F938F93BB
:1007C0009F93EF93FF93E0911502F09116028081C1
:1007D000E0911B02F0911C0282FD12C09081809179
:1007E0001E028F5F8F7320911F02821751F0E091DC
:1007F0001E02F0E0EB5FFD4F958F80931E0201C05B
:100800008081FF91EF919F918F912F910F900FBE5B
:100810000F901F9018951F920F920FB60F921124F0
:100820002F933F934F935F936F937F938F939F93F8
:10083000AF93BF93EF93FF938091B900887F803689
:1008400009F49CC068F5883209F45BC090F48031EB
:1008500009F454C038F4882309F4F6C0883009F448
:100860004DC0F6C0883109F44CC0803209F45DC037
:10087000EFC0803409F468C048F4803309F455C0EF
:10088000883309F0E5C08093E001D8C0803509F4D1
:100890004FC0883509F45DC0883409F0D9C0D6C08E
:1008A000883909F4C7C0A8F4883709F467C038F458
:1008B000883609F463C0803709F460C0C9C088383D
:1008C00009F4B8C0803909F45FC0803809F0C0C0AD
:1008D0005BC0803B09F486C038F4803A09F466C0F6
:1008E000883A09F47FC0B4C0803C09F4A7C0883CB2
:1008F00009F4A4C0883B09F48AC0AAC08091DD0134
:1009000010C09091DF018091DE01981770F5E091A1
:10091000DF0181E08E0F8093DF01F0E0E454FE4FB1
:1009200080818093BB0085EC86C08093E0018EC0FF
:10093000E091DF0181E08E0F8093DF018091BB00A9
:10094000F0E0E454FE4F80839091DF018091DE015E
:100950006EC0E091DF0181E08E0F8093DF01809116
:10096000BB00F0E0E454FE4F80838091E1018111EF
:100970006DC081E08093DC0184EA61C083E08093F4
:10098000E20110928E01CFCF80918E01803208F06B
:1009900051C0E0918E0181E08E0F80938E01809195
:1009A000BB00F0E0E259FE4F8083BDCF85EC809321
:1009B000BC001092E20180918E01803230F4E0910F
:1009C0008E01F0E0E259FE4F108260918E0170E0DE
:1009D000E0916C01F0916D018EE691E00995109225
:1009E0008E0136C084E08093E20110926B01109278
:1009F0006A01E0916801F0916901099580916A01AD
:100A0000811105C081E080936A0110924801E09154
:100A10006B0181E08E0F80936B01F0E0E85BFE4F8D
:100A200080818093BB0090916B0180916A0198173F
:100A300008F479CF85E88093BC000AC085EC8093E8
:100A4000BC001092E20104C01092E0010E942D024D
:100A5000FF91EF91BF91AF919F918F917F916F9196
:100A60005F914F913F912F910F900FBE0F901F906C
:100A70001895E5E0F2E01382128288EE93E0A0E0A0
:100A8000B0E084839583A683B78324E031E031838B
:100A9000208325EC30E03587248724EC30E037874D
:100AA000268720EC30E0318B208B21EC30E0338B3B
:100AB000228B22EC30E0358B248B26EC30E0378B18
:100AC000268B118E128E138E148EE2EAF2E01382C0
:100AD000128284839583A683B78386E191E0918314
:100AE000808382E08093B0020895CF93DF93CDB7E7
:100AF000DEB7A1970FB6F894DEBF0FBECDBF7894D6
:100B000084B5826084BD84B5816084BD85B5826012
:100B100085BD85B5816085BD80916E0081608093C3
:100B20006E0010928100809181008260809381002C
:100B3000809181008160809381008091800081603C
:100B4000809380008091B10084608093B100809197
:100B5000B00081608093B00080917A0084608093BF
:100B60007A0080917A00826080937A0080917A0086
:100B7000816080937A0080917A00806880937A0007
:100B80001092C100E0911502F091160282E080837C
:100B9000E0911102F09112021082E0911302F091A3
:100BA00014028FEC808310921D02E0911902F091E3
:100BB0001A0286E08083E0911702F091180280818A
:100BC00080618083E0911702F09118028081886033
:100BD0008083E0911702F091180280818068808301
:100BE000E0911702F091180280818F7D808384E26A
:100BF00091E00E94550382E391E00E94550382EA4E
:100C000092E09093AF028093AE028091B002837F16
:100C100084608093B0021092E4011092E30110927C
:100C2000B2011092B1010E945F0241E06CE080913C
:100C3000AE029091AF020E940A031092E40110925A
:100C4000E3011092B2011092B1010E945F0281E0B3
:100C50008093B00188E38093AF018091AE029091C0
:100C6000AF02DC01ED91FC910190F081E02D6091EB
:100C7000B00209959091B1018091AF01913208F0D5
:100C800046C02091E2012111FCCF22E02093E20135
:100C900021E02093E1012FEF2093E0011092DF018A
:100CA0009093DE01AFE8B1E04CEB51E0FA012E2F5A
:100CB000241B291718F42D912193F9CF1092DD01EF
:100CC0009091DD01880F892B8093DD018091DC01FB
:100CD000813061F41092DC018091DD018093BB00D2
:100CE0008091BC0083FDF8CF85EC01C085EE809338
:100CF000BC008091E2018230E1F38091E0018F3FFE
:100D000031F08091E001803211F08091E001109289
:100D1000B2011092B1011092B0018AE0882E912C9C
:100D2000A12CB12C8091B00286958695837011E03C
:100D3000882319F0110F8150FBCF00E0011741F01B
:100D40006FE370E080E090E00E94ED000F5FF6CF6F
:100D500041E069E38091AE029091AF020E940A03E4
:100D6000813019F08FEF9FEF25C08091AE029091F6
:100D7000AF02DC01ED91FC910284F385E02D099531
:100D8000182F41E068E38091AE029091AF020E947B
:100D90000A03813039F78091AE029091AF02DC01F5
:100DA000ED91FC910284F385E02D0995F12EE12C63
:100DB0008E299F2901E010E08F3F9F4F10F400E043
:100DC00010E085E391E00E9455039801A4E6B0E0AD
:100DD0000E9435079B01AC0119A28E010F5D1F4FC8
:100DE000CA01B901A50194010E941307605DF801D1
:100DF00062938F01211531054105510589F7CF0116
:100E00000E94550386E491E00E94550382E391E03D
:100E10000E94550368EE73E080E090E00E94ED00D0
:100E20000E9423027FCFA1E21A2EAA1BBB1BFD0149
:100E30000DC0AA1FBB1FEE1FFF1FA217B307E407B9
:100E4000F50720F0A21BB30BE40BF50B661F771F11
:100E5000881F991F1A9469F76095709580959095F1
:100E60009B01AC01BD01CF010895A29FB001B39FCA
:100E7000C001A39F700D811D1124911DB29F700DA3
:100E8000811D1124911D0895EE0FFF1F0590F4910F
:100E9000E02D099481E090E0F8940C944F07F894C9
:020EA000FFCF82
:100EA20000000000BA012701520101028301610121
:100EB200750100000000D702A70207037B029F0210
:100EC2008B027C0256454D4C3630373020546573C8
:100ED20074000D0A005556206C69676874206C65B1
:080EE20076656C3A2000250042
:00000001FF
