:100000000C9462000C948A000C948A000C948A0070
:100010000C948A000C948A000C948A000C948A0038
:100020000C948A000C948A000C948A000C948A0028
:100030000C948A000C948A000C948A000C948A0018
:100040000C948A070C948A000C94FA070C94D40739
:100050000C948A000C948A000C948A000C948A00F8
:100060000C948A000C948A000000000024002700F1
:100070002A0000000000250028002B0000000008D6
:10008000000201000003040700000000000000005F
:1000900000000000230026002900040404040404D6
:1000A0000404020202020202030303030303010227
:1000B00004081020408001020408102001020408F6
:1000C00010202C0811241FBECFEFD8E0DEBFCDBF1B
:1000D00011E0A0E0B1E0EEE2F9E102C005900D927E
:1000E000A638B107D9F722E0A6E8B1E001C01D9219
:1000F000AE33B207E1F710E0C2E6D0E004C02197CA
:10010000FE010E948A0CC136D107C9F70E94790806
:100110000C94950C0C9400008F929F92AF92BF921A
:10012000CF92DF92EF92FF92CF93DF93A0913302B1
:10013000882311F03A2F01C030E08091340290E022
:10014000880F991F80579F4FC0903902D0903A0274
:10015000E0903B02F0903C0240E050E0BA01FC012C
:10016000C591D49128812A2323130FC04A015B0132
:100170002FEF821A920AA20AB20A4C155D056E058B
:100180007F0538F4B501A401EACF342F252FCB0128
:1001900004C030E020E080E090E0632F722FDF9118
:1001A000CF91FF90EF90DF90CF90BF90AF909F9056
:1001B0008F90089590E0FC01E458FF4F3491FC01CA
:1001C000E255FF4F2491FC01E656FF4FE491EE23E8
:1001D00009F43BC0332339F1333091F038F4313036
:1001E000A9F0323001F584B58F7D12C0373091F01F
:1001F0003830A1F03430B9F4809180008F7D03C095
:10020000809180008F77809380000DC084B58F77B8
:1002100084BD09C08091B0008F7703C08091B00089
:100220008F7D8093B000F0E0EE0FFF1FEE58FF4F80
:10023000A591B4918FB7F894EC91611103C020950A
:100240002E2301C02E2B2C938FBF0895CF93DF93C5
:1002500090E0FC01E255FF4F2491FC01E656FF4F70
:100260008491882361F190E0880F991FFC01E8597F
:10027000FF4FC591D491FC01EE58FF4FA591B49169
:10028000611109C09FB7F8948881209582238883E3
:10029000EC912E230BC0623061F49FB7F894388143
:1002A000822F809583238883EC912E2B2C939FBFE4
:1002B00006C08FB7F894E8812E2B28838FBFDF917B
:1002C000CF9108953FB7F89480918701909188016C
:1002D000A0918901B0918A0126B5A89B05C02F3F46
:1002E00019F00196A11DB11D3FBFBA2FA92F982F5C
:1002F0008827820F911DA11DB11DBC01CD0142E0D7
:10030000660F771F881F991F4A95D1F708958F921E
:100310009F92AF92BF92CF92DF92EF92FF926B01CA
:100320007C010E9462014B015C01C114D104E10413
:10033000F104F1F00E946201DC01CB0188199909F6
:10034000AA09BB09883E9340A105B10570F321E0DD
:10035000C21AD108E108F10888EE880E83E0981EE1
:10036000A11CB11CC114D104E104F10419F7DDCFC3
:10037000FF90EF90DF90CF90BF90AF909F908F90C5
:100380000895CF92DF92EF92FF920F931F93CF9336
:10039000DF93CDB7DEB7C054D1400FB6F894DEBFBF
:1003A0000FBECDBF2FB7F89480918B0190918C0137
:1003B000A0918D01B0918E012FBF409135025091D7
:1003C000360260913702709138028C019D01041B46
:1003D000150B260B370BB901A801403D57406105AD
:1003E000710518F480913D02BCC080933502909352
:1003F0003602A0933702B093380210923002109266
:100400002F0210922E0210922D0210922C0261E007
:10041000809131020E94DA006AEF70E080E090E0A3
:100420000E94870161E0809131020E94260160E014
:10043000809131020E94DA0064E170E080E090E097
:100440000E948701F89461E0809131020E94DA00F5
:100450008BE990E00197F1F762E0809131020E9410
:10046000260183E290E00197F1F780E00E948C0082
:10047000672B682B692B21F410923D0278943EC0C3
:1004800081E00E948C00672B682B692BA9F38E01F9
:100490000F5F1F4F6E012FEBC21A2EEFD20A7801A9
:1004A00080E00E948C00F7016083718382839383D4
:1004B00081E00E948C00F7016483758386839783B3
:1004C000F8E0EF0EF11CEC14FD0451F7789420E0F5
:1004D00030E0F8014081518162817381C480D58010
:1004E000E680F780411551056105710529F0C114B9
:1004F000D104E104F10421F410923D0280E031C006
:10050000F90183E0F595E7958A95E1F7E45DFD4F04
:100510008081880F4C155D056E057F0508F48160AC
:1005200080832F5F3F4F085F1F4F2832310589F6C8
:100530002091300230E040912C0280912D0290E019
:10054000840F911D40912E02840F911D40912F0226
:10055000840F911D99272817390771F681E0809340
:100560003D02C05CDE4F0FB6F894DEBF0FBECDBFBC
:10057000DF91CF911F910F91FF90EF90DF90CF907F
:100580000895CF92DF92EF92FF92CF93DF93C82F1F
:100590000E94C101882309F448C0909132029B3027
:1005A00031F008F442C09551923048F03EC060915D
:1005B0002E0270E080E090E00E94E40A27C0D09113
:1005C0002E026D2F6F7770E080E090E00E94E60AC7
:1005D00020E030E040E853E40E949B0B6B017C017B
:1005E00040912F02642F70E080E090E00E94E60AC4
:1005F0009B01AC01C701B6010E94D2092DEC3CEC75
:100600004CEC5DE30E949B0BD7FD9058CC2389F006
:1006100026E636E646EE5FE30E949B0B20E030E0E4
:1006200040E052E40E94D20904C060E070E080EC37
:100630009FE7DF91CF91FF90EF90DF90CF900895EB
:10064000CF92DF92EF92FF920F931F93CF93DF939E
:100650006C017A018B01C0E0D0E0CE15DF0589F096
:10066000D8016D918D01D601ED91FC910190F08141
:10067000E02DC6010995892B11F47E0102C0219657
:10068000ECCFC701DF91CF911F910F91FF90EF90B9
:10069000DF90CF900895089580E090E00895FC01E8
:1006A000538D448D252F30E0842F90E0821B930BD7
:1006B000541710F0CF96089501970895FC01918D7D
:1006C000828D981761F0828DDF01A80FB11D5D96B4
:1006D0008C91928D9F5F9F73928F90E008958FEF22
:1006E0009FEF0895FC01918D828D981731F0828DD6
:1006F000E80FF11D858D90E008958FEF9FEF08952D
:10070000FC01918D228D892F90E0805C9F4F821B90
:1007100091098F73992708958FE891E00E948003D3
:1007200021E0892B09F420E0822F0895FC01848DBB
:10073000DF01A80FB11DA35ABF4F2C91848D90E00B
:1007400001968F739927848FA689B7892C93A089E6
:10075000B1898C9180648C93938D848D981306C09D
:100760000288F389E02D80818F7D80830895EF9248
:10077000FF920F931F93CF93DF93EC0181E0888F5B
:100780009B8D8C8D981305C0E889F989808185FD42
:1007900024C0F62E0B8D10E00F5F1F4F0F73112733
:1007A000E02E8C8DE8120CC00FB607FCFACFE8895A
:1007B000F989808185FFF5CFCE010E949603F1CFA4
:1007C0008B8DFE01E80FF11DE35AFF4FF0820B8F76
:1007D000EA89FB898081806207C0EE89FF89608396
:1007E000E889F98980818064808381E090E0DF91ED
:1007F000CF911F910F91FF90EF900895CF93DF93CA
:10080000EC01888D8823C9F0EA89FB89808185FD08
:1008100005C0A889B9898C9186FD0FC00FB607FC69
:10082000F5CF808185FFF2CFA889B9898C9185FFAA
:10083000EDCFCE010E949603E7CFDF91CF910895CF
:1008400080E090E0892B29F00E948C0381110C94A8
:1008500000000895009769F0FC0101900020E9F77D
:100860003197AF01481B590BBC018FE891E00C9404
:10087000200380E090E00895CF93DF930E942A0444
:10088000EC0182E191E00E942A048C0F9D1FDF9110
:10089000CF9108958F929F92AF92BF920F931F9323
:1008A000CF93DF93CDB7DEB7A1970FB6F894DEBF35
:1008B0000FBECDBF19A2423008F44AE08E010F5D91
:1008C0001F4F842E912CA12CB12CA50194010E94C4
:1008D000680CE62FB901CA0101501109EA3014F47D
:1008E000E05D01C0E95CD801EC93232B242B252B80
:1008F00061F7C8010E942A04A1960FB6F894DEBFE2
:100900000FBECDBFDF91CF911F910F91BF90AF90E0
:100910009F908F9008954F925F926F927F928F92E7
:100920009F92AF92BF92CF92DF92EF92FF926B01B4
:100930007C01B42E9B01AC010E944E0C882319F05F
:1009400085E191E027C026013701E89477F82FEF81
:100950003FEF4FE75FE7C301B2010E944E0C8111E8
:100960000DC02FEF3FEF4FE75FE7C301B2010E94D9
:100970003E0A18161CF489E191E00CC02FEF3FEFFE
:100980004FE75FE4C701B6010E94960B181684F486
:100990008DE191E0FF90EF90DF90CF90BF90AF900E
:1009A0009F908F907F906F905F904F900C942A044F
:1009B0002FEF3FEF4FE75FECC701B6010E943E0A01
:1009C00087FDE6CF20E030E0A901C701B6010E9413
:1009D0003E0A87FF11C0E0918F01F09190010190D4
:1009E000F081E02D6DE28FE891E009954C01F7FA76
:1009F000F094F7F8F09402C0812C912CA12C60E0C7
:100A000070E080E09FE3AB1441F020E030E040E292
:100A100051E40E94430AA394F6CF9B01AC01C701A5
:100A2000B6010E94D2092B013C010E94B50A6B015C
:100A30007C010E94E40A9B01AC01C301B2010E9447
:100A4000D1092B013C014AE0C701B6010E944A04CA
:100A50007C01E80CF91CBB2069F0E0918F01F0915A
:100A600090010190F081E02D6EE28FE891E0099510
:100A7000E80EF91EDB2CDD2021F120E030E040E221
:100A800051E4C301B2010E949B0B2B013C010E9467
:100A9000B50A4B01A12CB12C4AE0C501B4010E945A
:100AA0004A04E80EF91EC501B4010E94E40A9B0144
:100AB000AC01C301B2010E94D1092B013C01DA94BF
:100AC000DACFC701FF90EF90DF90CF90BF90AF904B
:100AD0009F908F907F906F905F904F9008954F926E
:100AE0005F926F927F928F929F92AF92BF92CF92BE
:100AF000DF92EF92FF920F93CF93DF93CDB7DEB7E4
:100B000028970FB6F894DEBF0FBECDBF6B017C01F6
:100B100049015A0101110EC026E636E646EE5FE3B2
:100B20000E949B0B20E030E040E052E40E94D2099A
:100B30006B017C0120E030E044E752E4C701B601DC
:100B40000E94D2092B013C0120E030E048E852E449
:100B5000C701B6010E94D1092AE939E949E95FE3F1
:100B60000E949B0B9B01AC01C301B2010E94D20900
:100B70002B013C0122E133E840EC5DE3C501B40107
:100B80000E949B0B9B01AC01C301B2010E94D209E0
:100B900020E030E040E05FE30E949B0B2B013C0132
:100BA00020E030E04EE952E40E94960B18160CF05B
:100BB00075C1A7019601C701B6010E949B0B2B01CD
:100BC0003C01A5019401C501B4010E949B0B6D83FA
:100BD0007E838F83988721E133E243E050E4C701AD
:100BE000B6010E949B0B29E134E849E252E40E94DD
:100BF000D10969837A838B839C8326E13BE442E2BB
:100C000051E4C501B4010E949B0B9B01AC016981B9
:100C10007A818B819C810E94D20969837A838B833C
:100C20009C8328E436E246E65EEBC701B6010E94EB
:100C30009B0BA50194010E949B0B9B01AC01698158
:100C40007A818B819C810E94D20969837A838B830C
:100C50009C8320EE3FE040EE5BEBC301B2010E94BB
:100C60009B0B9B01AC0169817A818B819C810E94E5
:100C7000D20969837A838B839C8328EF37E840E627
:100C80005DEB6D817E818F8198850E949B0B9B011E
:100C9000AC0169817A818B819C810E94D209698330
:100CA0007A838B839C832CEA3DE041EA5AE3C301BB
:100CB000B2010E949B0BA50194010E949B0B9B011A
:100CC000AC0169817A818B819C810E94D209698300
:100CD0007A838B839C8328EC3FE84FE55AE3C70176
:100CE000B6010E949B0B2D813E814F8158850E9449
:100CF0009B0B9B01AC0169817A818B819C810E9455
:100D0000D20969837A838B839C8321EF3BE845E09A
:100D100056EBC301B2010E949B0B2D813E814F8196
:100D200058850E949B0B9B01AC0169817A818B8164
:100D30009C810E94D2092B013C0120E030E040E57B
:100D400051E4C501B4010E943E0A87FF5CC020E067
:100D500030E040EA52E4C701B6010E94960B87FDDD
:100D600052C020E030E040EE52E4C701B6010E94DC
:100D70003E0A18160CF4A6C0A501940160E070E0CC
:100D800080E591E40E94D10920E030E040E85EE394
:100D90000E949B0B4B015C0120E030E04EEB52E4E3
:100DA000C701B6010E94D1096B017C0120E030E04F
:100DB000A9010E94960B18164CF4A701960160E059
:100DC00070E088E891E40E94D10908C020E030E09A
:100DD00048E851E4C701B6010E94D2092EE33DEE76
:100DE00040E75DE30E949B0B0E940E0C9B01AC014F
:100DF000C501B4010E949B0B9B01AC01B201C30170
:100E00000E94D10949C020E030E04AEA52E4C5011D
:100E1000B4010E94960B18160CF040C020E030E0A0
:100E200040EA52E4C701B6010E94960B87FD36C026
:100E300020E030E04EEA52E4C701B6010E943E0ACB
:100E4000181664F120E030E04AEA52E4C501B4012A
:100E50000E94D1092DEC3CEC4CEC5DE30E949B0B15
:100E60004B015C01A701960160E070E08EEA92E41C
:100E70000E94D1092DEC3CEC4CE45EE30E949B0BFC
:100E80009B01AC01C501B4010E949B0B9B01AC010D
:100E9000B201C3010E94D2092B013C0101110FC014
:100EA00020E030E040E052E4B201C3010E94D109E9
:100EB00026E838E34EE05FE30E949B0B0FC0B201CF
:100EC000C3010CC020E030E04AEA52E4C501B4019D
:100ED0000E94960B18160CF4ABCFE0CF6B017C018F
:100EE000C701B60128960FB6F894DEBF0FBECDBF7E
:100EF000DF91CF910F91FF90EF90DF90CF90BF9057
:100F0000AF909F908F907F906F905F904F900895DB
:100F10000E94900C1F920F920FB60F9211242F93E4
:100F20003F938F939F93AF93BF9380918B01909149
:100F30008C01A0918D01B0918E013091860123E04A
:100F4000230F2D3720F40196A11DB11D05C026E801
:100F5000230F0296A11DB11D2093860180938B0162
:100F600090938C01A0938D01B0938E0180918701A5
:100F700090918801A0918901B0918A010196A11DEB
:100F8000B11D8093870190938801A0938901B0934C
:100F90008A01BF91AF919F918F913F912F910F90B7
:100FA0000FBE0F901F9018951F920F920FB60F92C1
:100FB00011242F933F934F935F936F937F938F935E
:100FC0009F93AF93BF93EF93FF938FE891E00E94BD
:100FD0009603FF91EF91BF91AF919F918F917F9178
:100FE0006F915F914F913F912F910F900FBE0F9096
:100FF0001F9018951F920F920FB60F9211242F93E6
:101000008F939F93EF93FF93E0919F01F091A00145
:101010008081E091A501F091A60182FD12C090812E
:101020008091A8018F5F8F732091A901821751F0E1
:10103000E091A801F0E0E157FE4F958F8093A80161
:1010400001C08081FF91EF919F918F912F910F901F
:101050000FBE0F901F901895EFE8F1E013821282F7
:1010600088EE93E0A0E0B0E084839583A683B78305
:1010700084E091E09183808385EC90E0958784877C
:1010800084EC90E09787868780EC90E0918B808B52
:1010900081EC90E0938B828B82EC90E0958B848B3B
:1010A00086EC90E0978B868B118E128E138E148EA9
:1010B000ACE2B2E083E015968C9315978BE0169620
:1010C0008C931697E1EBF0E0E4911796EC93179769
:1010D000EDE9F0E0E4911896EC93189740E85EE3B0
:1010E00060E070E01D964D935D936D937C935097F7
:1010F0000895CF93DF93CDB7DEB728970FB6F89456
:10110000DEBF0FBECDBF789484B5826084BD84B548
:10111000816084BD85B5826085BD85B5816085BDF2
:1011200080916E00816080936E00109281008091AA
:101130008100826080938100809181008160809332
:101140008100809180008160809380008091B10057
:1011500084608093B1008091B00081608093B00082
:1011600080917A00846080937A0080917A00826016
:1011700080937A0080917A00816080937A008091D8
:101180007A00806880937A001092C100E0919F01FC
:10119000F091A00182E08083E0919B01F0919C019D
:1011A0001082E0919D01F0919E018FEC808310925E
:1011B000A701E091A301F091A40186E08083E09172
:1011C000A101F091A201808180618083E091A10161
:1011D000F091A201808188608083E091A101F0916B
:1011E000A201808180688083E091A101F091A20139
:1011F00080818F7D808381E291E00E943C0462E0E7
:10120000809131020E94260180E398EFAFEFBFEF9B
:101210008093350290933602A0933702B093380240
:1012200060ED77E080E090E00E9487010E94C101BC
:101230008823B1F1809132028B3041F188F18551E0
:10124000823070F560912C0270E080E090E00E94A6
:10125000E40A20E030E040E853E40E949B0B6B017D
:101260007C0180912D02682F70E080E090E00E9468
:10127000E60A9B01AC01C701B6010E94D2092DEC20
:101280003CEC4CEC5DE30E949B0B07C060912C0290
:1012900070E080E090E00E94E40A6B017C0106C0EF
:1012A000C12CD12C80ECE82E8FE7F82E80E00E9434
:1012B000C1022B013C0181E00E94C1024B015C0193
:1012C000A7019601C701B6010E944E0C811162C0B0
:1012D000A3019201C301B2010E944E0C81115AC0B8
:1012E000A5019401C501B4010E944E0C811152C0A8
:1012F00001E0A7019601C501B4010E946F05698351
:101300007A838B839C8300E0A7019601C301B2011D
:101310000E946F056D837E838F8398878DE291E0B5
:101320000E942A0442E0C701B6010E948B0488E3B0
:1013300091E00E942A048CE391E00E942A0442E09A
:10134000C301B2010E948B048AE491E00E942A0446
:1013500042E0C501B4010E948B048FE491E00E9439
:101360002A0484E591E00E942A0442E06D817E8196
:101370008F8198850E948B048AE491E00E942A0460
:1013800042E069817A818B819C810E948B0481E695
:1013900091E002C085E691E00E943C040E94200496
:1013A0003FCF5058BB27AA270E94E9090C945C0B39
:1013B0000E944E0B38F00E94550B20F039F49F3FED
:1013C00019F426F40C944B0B0EF4E095E7FB0C9407
:1013D000450BE92F0E946D0B58F3BA17620773078C
:1013E0008407950720F079F4A6F50C948F0B0EF482
:1013F000E0950B2EBA2FA02D0B01B90190010C0125
:10140000CA01A0011124FF27591B99F0593F50F43C
:10141000503E68F11A16F040A22F232F342F442794
:10142000585FF3CF469537952795A795F04053958C
:10143000C9F77EF41F16BA0B620B730B840BBAF05C
:101440009150A1F0FF0FBB1F661F771F881FC2F7C7
:101450000EC0BA0F621F731F841F48F487957795DB
:101460006795B795F7959E3F08F0B0CF9395880F95
:1014700008F09927EE0F9795879508950E94210B04
:1014800008F481E008950E94570A0C945C0B0E94B6
:10149000550B58F00E944E0B40F029F45F3F29F0A5
:1014A0000C94450B51110C94900B0C944B0B0E9417
:1014B0006D0B68F39923B1F3552391F3951B550BED
:1014C000BB27AA2762177307840738F09F5F5F4F17
:1014D000220F331F441FAA1FA9F335D00E2E3AF056
:1014E000E0E832D091505040E695001CCAF72BD06E
:1014F000FE2F29D0660F771F881FBB1F26173707BF
:101500004807AB07B0E809F0BB0B802DBF01FF27F0
:1015100093585F4F3AF09E3F510578F00C94450B7D
:101520000C94900B5F3FE4F3983ED4F38695779547
:101530006795B795F7959F5FC9F7880F911D9695A9
:10154000879597F90895E1E0660F771F881FBB1F05
:10155000621773078407BA0720F0621B730B840BB2
:10156000BA0BEE1F88F7E09508950E94750B88F07E
:101570009F5798F0B92F9927B751B0F0E1F0660F57
:10158000771F881F991F1AF0BA95C9F714C0B13098
:1015900091F00E948F0BB1E008950C948F0B672F90
:1015A000782F8827B85F39F0B93FCCF386957795C7
:1015B0006795B395D9F73EF49095809570956195B0
:1015C0007F4F8F4F9F4F0895E89409C097FB3EF4DB
:1015D00090958095709561957F4F8F4F9F4F992380
:1015E000A9F0F92F96E9BB279395F69587957795FE
:1015F0006795B795F111F8CFFAF4BB0F11F460FFBE
:101600001BC06F5F7F4F8F4F9F4F16C0882311F015
:1016100096E911C0772321F09EE8872F762F05C029
:10162000662371F096E8862F70E060E02AF09A95C4
:10163000660F771F881FDAF7880F9695879597F9B9
:101640000895990F0008550FAA0BE0E8FEEF161653
:101650001706E807F907C0F012161306E407F507A6
:1016600098F0621B730B840B950B39F40A2661F01A
:10167000232B242B252B21F408950A2609F4A140BD
:10168000A6958FEF811D811D089597F99F6780E8CA
:1016900070E060E008959FEF80EC089500240A94C4
:1016A0001616170618060906089500240A9412163D
:1016B0001306140605060895092E0394000C11F470
:1016C000882352F0BB0F40F4BF2B11F460FF04C01D
:1016D0006F5F7F4F8F4F9F4F089557FD9058440F76
:1016E000551F59F05F3F71F04795880F97FB991F81
:1016F00061F09F3F79F0879508951216130614063E
:10170000551FF2CF4695F1DF08C0161617061806CA
:10171000991FF1CF86957105610508940895E894A5
:10172000BB2766277727CB0197F908950E94210BE5
:1017300008F48FEF08950E94AE0B0C945C0B0E948E
:101740004E0B38F00E94550B20F0952311F00C94AD
:10175000450B0C944B0B11240C94900B0E946D0BB9
:1017600070F3959FC1F3950F50E0551F629FF001F4
:10177000729FBB27F00DB11D639FAA27F00DB11D0D
:10178000AA1F649F6627B00DA11D661F829F222796
:10179000B00DA11D621F739FB00DA11D621F839F1D
:1017A000A00D611D221F749F3327A00D611D231FF3
:1017B000849F600D211D822F762F6A2F11249F5741
:1017C00050409AF0F1F088234AF0EE0FFF1FBB1F44
:1017D000661F771F881F91505040A9F79E3F510503
:1017E00080F00C94450B0C94900B5F3FE4F3983E13
:1017F000D4F3869577956795B795F795E7959F5FAD
:10180000C1F7FE2B880F911D9695879597F908953E
:1018100019F416F40C944B0B0C94530C0E94750B9A
:10182000B8F39923C9F3B6F39F57550B87FF0E946E
:10183000610C0024A0E640EA9001805856959795E7
:1018400028F4805C660F771F881F20F02617370763
:10185000480730F4621B730B840B202931294A2B73
:10186000A69517940794202531254A2758F7660F27
:10187000771F881F20F026173707480730F4620BC0
:10188000730B840B200D311D411DA09581F7B9010B
:10189000842F9158880F9695879508950E94210B63
:1018A000880B990B08959F3F31F0915020F4879554
:1018B00077956795B795880F911D9695879597F9B8
:1018C000089591505040660F771F881FD2F70895F2
:1018D000A1E21A2EAA1BBB1BFD010DC0AA1FBB1F34
:1018E000EE1FFF1FA217B307E407F50720F0A21BA6
:1018F000B30BE40BF50B661F771F881F991F1A9413
:1019000069F760957095809590959B01AC01BD013C
:10191000CF010895EE0FFF1F0590F491E02D09947B
:0E19200081E090E0F8940C94950CF894FFCFC1
:10192E0000000000B70320034F03FE0380035E0395
:10193E0072030D0A006E616E00696E66006F766648
:10194E000044485478782074657374210048756D8E
:10195E0069646974793A20002025090054656D7018
:10196E00657261747572653A2000202A432000204A
:10197E002A4609004865617420696E6465783A20CC
:10198E0000202A46004661696C656420746F2072DF
:10199E006561642066726F6D204448542073656ED5
:0619AE00736F72210000BE
:00000001FF
